{
  "_format": "hh-sol-artifact-1",
  "contractName": "Voting",
  "sourceName": "contracts/Voting.sol",
  "abi": [
    {
      "inputs": [
        {
          "internalType": "string[]",
          "name": "_candidateNames",
          "type": "string[]"
        },
        {
          "internalType": "uint256",
          "name": "_durationInMinutes",
          "type": "uint256"
        }
      ],
      "stateMutability": "nonpayable",
      "type": "constructor"
    },
    {
      "inputs": [
        {
          "internalType": "string",
          "name": "_name",
          "type": "string"
        }
      ],
      "name": "addCandidate",
      "outputs": [],
      "stateMutability": "nonpayable",
      "type": "function"
    },
    {
      "inputs": [
        {
          "internalType": "uint256",
          "name": "",
          "type": "uint256"
        }
      ],
      "name": "candidates",
      "outputs": [
        {
          "internalType": "string",
          "name": "name",
          "type": "string"
        },
        {
          "internalType": "uint256",
          "name": "voteCount",
          "type": "uint256"
        }
      ],
      "stateMutability": "view",
      "type": "function"
    },
    {
      "inputs": [],
      "name": "getAllVotes",
      "outputs": [
        {
          "components": [
            {
              "internalType": "string",
              "name": "name",
              "type": "string"
            },
            {
              "internalType": "uint256",
              "name": "voteCount",
              "type": "uint256"
            }
          ],
          "internalType": "struct Voting.Candidate[]",
          "name": "",
          "type": "tuple[]"
        }
      ],
      "stateMutability": "view",
      "type": "function"
    },
    {
      "inputs": [],
      "name": "owner",
      "outputs": [
        {
          "internalType": "address",
          "name": "",
          "type": "address"
        }
      ],
      "stateMutability": "view",
      "type": "function"
    },
    {
      "inputs": [],
      "name": "remainingTime",
      "outputs": [
        {
          "internalType": "uint256",
          "name": "",
          "type": "uint256"
        }
      ],
      "stateMutability": "view",
      "type": "function"
    },
    {
      "inputs": [
        {
          "internalType": "uint256",
          "name": "_candidateIndex",
          "type": "uint256"
        }
      ],
      "name": "vote",
      "outputs": [],
      "stateMutability": "nonpayable",
      "type": "function"
    },
    {
      "inputs": [
        {
          "internalType": "address",
          "name": "",
          "type": "address"
        }
      ],
      "name": "voters",
      "outputs": [
        {
          "internalType": "bool",
          "name": "",
          "type": "bool"
        }
      ],
      "stateMutability": "view",
      "type": "function"
    },
    {
      "inputs": [],
      "name": "votingActive",
      "outputs": [
        {
          "internalType": "bool",
          "name": "",
          "type": "bool"
        }
      ],
      "stateMutability": "view",
      "type": "function"
    },
    {
      "inputs": [],
      "name": "votingEnd",
      "outputs": [
        {
          "internalType": "uint256",
          "name": "",
          "type": "uint256"
        }
      ],
      "stateMutability": "view",
      "type": "function"
    },
    {
      "inputs": [],
      "name": "votingStart",
      "outputs": [
        {
          "internalType": "uint256",
          "name": "",
          "type": "uint256"
        }
      ],
      "stateMutability": "view",
      "type": "function"
    }
  ],
  "bytecode": "0x608060405234801561001057600080fd5b5060405161189e38038061189e833981810160405281019061003291906103c7565b60005b82518110156100c8576000604051806040016040528085848151811061005e5761005d610423565b5b602002602001015181526020016000815250908060018154018082558091505060019003906000526020600020906002020160009091909190915060008201518160000190816100ae9190610669565b506020820151816001015550508080600101915050610035565b5033600160006101000a81548173ffffffffffffffffffffffffffffffffffffffff021916908373ffffffffffffffffffffffffffffffffffffffff16021790555042600381905550603c8161011e919061076a565b4261012991906107ac565b60048190555050506107e0565b6000604051905090565b600080fd5b600080fd5b600080fd5b6000601f19601f8301169050919050565b7f4e487b7100000000000000000000000000000000000000000000000000000000600052604160045260246000fd5b6101988261014f565b810181811067ffffffffffffffff821117156101b7576101b6610160565b5b80604052505050565b60006101ca610136565b90506101d6828261018f565b919050565b600067ffffffffffffffff8211156101f6576101f5610160565b5b602082029050602081019050919050565b600080fd5b600080fd5b600067ffffffffffffffff82111561022c5761022b610160565b5b6102358261014f565b9050602081019050919050565b60005b83811015610260578082015181840152602081019050610245565b60008484015250505050565b600061027f61027a84610211565b6101c0565b90508281526020810184848401111561029b5761029a61020c565b5b6102a6848285610242565b509392505050565b600082601f8301126102c3576102c261014a565b5b81516102d384826020860161026c565b91505092915050565b60006102ef6102ea846101db565b6101c0565b9050808382526020820190506020840283018581111561031257610311610207565b5b835b8181101561035957805167ffffffffffffffff8111156103375761033661014a565b5b80860161034489826102ae565b85526020850194505050602081019050610314565b5050509392505050565b600082601f8301126103785761037761014a565b5b81516103888482602086016102dc565b91505092915050565b6000819050919050565b6103a481610391565b81146103af57600080fd5b50565b6000815190506103c18161039b565b92915050565b600080604083850312156103de576103dd610140565b5b600083015167ffffffffffffffff8111156103fc576103fb610145565b5b61040885828601610363565b9250506020610419858286016103b2565b9150509250929050565b7f4e487b7100000000000000000000000000000000000000000000000000000000600052603260045260246000fd5b600081519050919050565b7f4e487b7100000000000000000000000000000000000000000000000000000000600052602260045260246000fd5b600060028204905060018216806104a457607f821691505b6020821081036104b7576104b661045d565b5b50919050565b60008190508160005260206000209050919050565b60006020601f8301049050919050565b600082821b905092915050565b60006008830261051f7fffffffffffffffffffffffffffffffffffffffffffffffffffffffffffffffff826104e2565b61052986836104e2565b95508019841693508086168417925050509392505050565b6000819050919050565b600061056661056161055c84610391565b610541565b610391565b9050919050565b6000819050919050565b6105808361054b565b61059461058c8261056d565b8484546104ef565b825550505050565b600090565b6105a961059c565b6105b4818484610577565b505050565b5b818110156105d8576105cd6000826105a1565b6001810190506105ba565b5050565b601f82111561061d576105ee816104bd565b6105f7846104d2565b81016020851015610606578190505b61061a610612856104d2565b8301826105b9565b50505b505050565b600082821c905092915050565b600061064060001984600802610622565b1980831691505092915050565b6000610659838361062f565b9150826002028217905092915050565b61067282610452565b67ffffffffffffffff81111561068b5761068a610160565b5b610695825461048c565b6106a08282856105dc565b600060209050601f8311600181146106d357600084156106c1578287015190505b6106cb858261064d565b865550610733565b601f1984166106e1866104bd565b60005b82811015610709578489015182556001820191506020850194506020810190506106e4565b868310156107265784890151610722601f89168261062f565b8355505b6001600288020188555050505b505050505050565b7f4e487b7100000000000000000000000000000000000000000000000000000000600052601160045260246000fd5b600061077582610391565b915061078083610391565b925082820261078e81610391565b915082820484148315176107a5576107a461073b565b5b5092915050565b60006107b782610391565b91506107c283610391565b92508282019050808211156107da576107d961073b565b5b92915050565b6110af806107ef6000396000f3fe608060405234801561001057600080fd5b506004361061009e5760003560e01c8063851b6ef211610066578063851b6ef21461014857806385a38635146101665780638da5cb5b14610184578063a3ec138d146101a2578063acc4bd08146101d25761009e565b80630121b93f146100a3578063101158af146100bf5780633477ee2e146100dd578063408e27271461010e578063462e91ec1461012c575b600080fd5b6100bd60048036038101906100b89190610720565b6101f0565b005b6100c761035a565b6040516100d4919061075c565b60405180910390f35b6100f760048036038101906100f29190610720565b610360565b604051610105929190610807565b60405180910390f35b61011661041c565b6040516101239190610852565b60405180910390f35b610146600480360381019061014191906108d2565b610436565b005b610150610571565b60405161015d9190610a77565b60405180910390f35b61016e61066c565b60405161017b919061075c565b60405180910390f35b61018c610672565b6040516101999190610ada565b60405180910390f35b6101bc60048036038101906101b79190610b21565b610698565b6040516101c99190610852565b60405180910390f35b6101da6106b8565b6040516101e7919061075c565b60405180910390f35b600260003373ffffffffffffffffffffffffffffffffffffffff1673ffffffffffffffffffffffffffffffffffffffff16815260200190815260200160002060009054906101000a900460ff161561027d576040517f08c379a000000000000000000000000000000000000000000000000000000000815260040161027490610b9a565b60405180910390fd5b60008054905081106102c4576040517f08c379a00000000000000000000000000000000000000000000000000000000081526004016102bb90610c06565b60405180910390fd5b600081815481106102d8576102d7610c26565b5b906000526020600020906002020160010160008154809291906102fa90610c84565b91905055506001600260003373ffffffffffffffffffffffffffffffffffffffff1673ffffffffffffffffffffffffffffffffffffffff16815260200190815260200160002060006101000a81548160ff02191690831515021790555050565b60035481565b6000818154811061037057600080fd5b906000526020600020906002020160009150905080600001805461039390610cfb565b80601f01602080910402602001604051908101604052809291908181526020018280546103bf90610cfb565b801561040c5780601f106103e15761010080835404028352916020019161040c565b820191906000526020600020905b8154815290600101906020018083116103ef57829003601f168201915b5050505050908060010154905082565b60006003544210158015610431575060045442105b905090565b600160009054906101000a900473ffffffffffffffffffffffffffffffffffffffff1673ffffffffffffffffffffffffffffffffffffffff163373ffffffffffffffffffffffffffffffffffffffff16146104c6576040517f08c379a00000000000000000000000000000000000000000000000000000000081526004016104bd90610d78565b60405180910390fd5b6000604051806040016040528084848080601f016020809104026020016040519081016040528093929190818152602001838380828437600081840152601f19601f8201169050808301925050505050505081526020016000815250908060018154018082558091505060019003906000526020600020906002020160009091909190915060008201518160000190816105609190610f73565b506020820151816001015550505050565b60606000805480602002602001604051908101604052809291908181526020016000905b8282101561066357838290600052602060002090600202016040518060400160405290816000820180546105c890610cfb565b80601f01602080910402602001604051908101604052809291908181526020018280546105f490610cfb565b80156106415780601f1061061657610100808354040283529160200191610641565b820191906000526020600020905b81548152906001019060200180831161062457829003601f168201915b5050505050815260200160018201548152505081526020019060010190610595565b50505050905090565b60045481565b600160009054906101000a900473ffffffffffffffffffffffffffffffffffffffff1681565b60026020528060005260406000206000915054906101000a900460ff1681565b600060045442106106cc57600090506106dd565b426004546106da9190611045565b90505b90565b600080fd5b600080fd5b6000819050919050565b6106fd816106ea565b811461070857600080fd5b50565b60008135905061071a816106f4565b92915050565b600060208284031215610736576107356106e0565b5b60006107448482850161070b565b91505092915050565b610756816106ea565b82525050565b6000602082019050610771600083018461074d565b92915050565b600081519050919050565b600082825260208201905092915050565b60005b838110156107b1578082015181840152602081019050610796565b60008484015250505050565b6000601f19601f8301169050919050565b60006107d982610777565b6107e38185610782565b93506107f3818560208601610793565b6107fc816107bd565b840191505092915050565b6000604082019050818103600083015261082181856107ce565b9050610830602083018461074d565b9392505050565b60008115159050919050565b61084c81610837565b82525050565b60006020820190506108676000830184610843565b92915050565b600080fd5b600080fd5b600080fd5b60008083601f8401126108925761089161086d565b5b8235905067ffffffffffffffff8111156108af576108ae610872565b5b6020830191508360018202830111156108cb576108ca610877565b5b9250929050565b600080602083850312156108e9576108e86106e0565b5b600083013567ffffffffffffffff811115610907576109066106e5565b5b6109138582860161087c565b92509250509250929050565b600081519050919050565b600082825260208201905092915050565b6000819050602082019050919050565b600082825260208201905092915050565b600061096782610777565b610971818561094b565b9350610981818560208601610793565b61098a816107bd565b840191505092915050565b61099e816106ea565b82525050565b600060408301600083015184820360008601526109c1828261095c565b91505060208301516109d66020860182610995565b508091505092915050565b60006109ed83836109a4565b905092915050565b6000602082019050919050565b6000610a0d8261091f565b610a17818561092a565b935083602082028501610a298561093b565b8060005b85811015610a655784840389528151610a4685826109e1565b9450610a51836109f5565b925060208a01995050600181019050610a2d565b50829750879550505050505092915050565b60006020820190508181036000830152610a918184610a02565b905092915050565b600073ffffffffffffffffffffffffffffffffffffffff82169050919050565b6000610ac482610a99565b9050919050565b610ad481610ab9565b82525050565b6000602082019050610aef6000830184610acb565b92915050565b610afe81610ab9565b8114610b0957600080fd5b50565b600081359050610b1b81610af5565b92915050565b600060208284031215610b3757610b366106e0565b5b6000610b4584828501610b0c565b91505092915050565b7f416c726561647920766f74656400000000000000000000000000000000000000600082015250565b6000610b84600d83610782565b9150610b8f82610b4e565b602082019050919050565b60006020820190508181036000830152610bb381610b77565b9050919050565b7f42616420696e6465780000000000000000000000000000000000000000000000600082015250565b6000610bf0600983610782565b9150610bfb82610bba565b602082019050919050565b60006020820190508181036000830152610c1f81610be3565b9050919050565b7f4e487b7100000000000000000000000000000000000000000000000000000000600052603260045260246000fd5b7f4e487b7100000000000000000000000000000000000000000000000000000000600052601160045260246000fd5b6000610c8f826106ea565b91507fffffffffffffffffffffffffffffffffffffffffffffffffffffffffffffffff8203610cc157610cc0610c55565b5b600182019050919050565b7f4e487b7100000000000000000000000000000000000000000000000000000000600052602260045260246000fd5b60006002820490506001821680610d1357607f821691505b602082108103610d2657610d25610ccc565b5b50919050565b7f4f776e6572206f6e6c7900000000000000000000000000000000000000000000600082015250565b6000610d62600a83610782565b9150610d6d82610d2c565b602082019050919050565b60006020820190508181036000830152610d9181610d55565b9050919050565b7f4e487b7100000000000000000000000000000000000000000000000000000000600052604160045260246000fd5b60008190508160005260206000209050919050565b60006020601f8301049050919050565b600082821b905092915050565b600060088302610e297fffffffffffffffffffffffffffffffffffffffffffffffffffffffffffffffff82610dec565b610e338683610dec565b95508019841693508086168417925050509392505050565b6000819050919050565b6000610e70610e6b610e66846106ea565b610e4b565b6106ea565b9050919050565b6000819050919050565b610e8a83610e55565b610e9e610e9682610e77565b848454610df9565b825550505050565b600090565b610eb3610ea6565b610ebe818484610e81565b505050565b5b81811015610ee257610ed7600082610eab565b600181019050610ec4565b5050565b601f821115610f2757610ef881610dc7565b610f0184610ddc565b81016020851015610f10578190505b610f24610f1c85610ddc565b830182610ec3565b50505b505050565b600082821c905092915050565b6000610f4a60001984600802610f2c565b1980831691505092915050565b6000610f638383610f39565b9150826002028217905092915050565b610f7c82610777565b67ffffffffffffffff811115610f9557610f94610d98565b5b610f9f8254610cfb565b610faa828285610ee6565b600060209050601f831160018114610fdd5760008415610fcb578287015190505b610fd58582610f57565b86555061103d565b601f198416610feb86610dc7565b60005b8281101561101357848901518255600182019150602085019450602081019050610fee565b86831015611030578489015161102c601f891682610f39565b8355505b6001600288020188555050505b505050505050565b6000611050826106ea565b915061105b836106ea565b925082820390508181111561107357611072610c55565b5b9291505056fea264697066735822122036eb621967f370dfc3259337b5e937ad52bae4d61476e879010b1f2f9c96650c64736f6c634300081c0033",
  "linkReferences": {},
  "deployedLinkReferences": {}
}